:020000040800F2
:10000000000008245D5C0008F7070008F9070008F5
:10001000FB070008FD070008FF07000800000000BC
:1000200000000000000000000000000001080008BF
:100030000308000800000000050800080708000881
:10004000AD5C00081508000817080008190800082A
:100050001B0800081D0800081F08000821080008E8
:100060002308000825080008270800085D08000884
:100070005F08000861080008290800082B0800082C
:100080002D0800082F080008310800083308000870
:100090003508000837080008390800083B08000840
:1000A0003D0800083F080008410800084308000810
:1000B00063080008450800084708000849080008C8
:1000C0004B0800084D0800084F08000851080008B8
:1000D0005308000861140008550800085708000874
:0800E000590800085B08000844
:1001000019494FF47A720B68B3FBF2F3013BB3F178
:10011000807F30B501D3012030BD4FF0E024F022C4
:1001200007250F286361114B83F823204FF000024D
:10013000A2612561EFD8DB68C3F30223EC1A1D1D11
:10014000042C28BF0424062D88BFDA1E4FF0FF338D
:10015000A34020EA03039340044A1B01DBB282F868
:10016000233048600020D7E70000002400ED00E0C5
:100170002DE9F74F0023DFF8C4914FF0B0440A682F
:1001800032FA03F502D103B0BDE8F08F012505FA7C
:1001900003F818EA020200F0BB804E6803274FEA1A
:1001A000430E06F0030507FA0EFC6F1E6FEA0C0CF7
:1001B000012F34D8876807EA0C0ACF6807FA0EF7D0
:1001C00047EA0A078760476827EA0808C6F3001766
:1001D0009F4047EA08074760C768022D07EA0C08F6
:1001E0008F6807FA0EF747EA0807C76019D14FEA88
:1001F000D30803F0070A4FF00F0B00EB88084FEA13
:100200008A0AD8F820700BFA0AFB27EA0B0B0F6951
:1002100007FA0AF747EA0B07C8F8207001E0032D38
:10022000DAD1076805FA0EF516F4403F07EA0C0725
:1002300045EA070505606BD0D9F8F45023F00307B1
:1002400003F0030C4FF00F0E45F0020507F1B04725
:100250004FEA8C0CC9F8F45007F58067D9F8F450D0
:100260000EFA0CFE05F002050195019DBD6825EA18
:100270000E0E314DA8424DD005F58065A8424BD0F9
:1002800005F58065A84249D005F58065A84247D0AC
:1002900005F58065A84245D005F58065A84243D0A4
:1002A00005F58065A84241D005F58065A8423FD09C
:1002B00005F58065A8423DD005F58065A84214BFCC
:1002C0000A25092505FA0CF516F4801F45EA0E05E6
:1002D000BD606FEA020725680CBF3D40154316F468
:1002E000001F256065680CBF3D40154316F4003FB4
:1002F0006560D4F884500CBF3D401543F603C4F844
:100300008450D4F8805054BF3D401543C4F8805009
:10031000013334E70025D5E70125D3E70225D1E7EE
:100320000325CFE70425CDE70525CBE70625C9E75B
:100330000725C7E70825C5E7000002580044025812
:10034000494B1A6902F03802102A30B500F0888053
:10035000182A0CD0002A40F085801A68434812F011
:10036000200F03D01B68C3F3C103D84030BD996A86
:100370009D6ADC6A15F47C7FC5F305105A6BF5D0D5
:10038000C2F3CC0204F0010401F0030107EE900A6D
:100390006243B7EE006A0129B8EEE77A06EE902ACA
:1003A000FAEEE96A4ED002293ED000294AD11A68F5
:1003B000920627D519682D4AC1F3C1011B6BCA40AB
:1003C000C3F3080307EE902AF8EEE75AC5EE877AE2
:1003D00007EE103AB8EEC77A37EE267A37EE067A8D
:1003E00067EE877A204B1B6BC3F34623013307EE7E
:1003F000103AF8EEC76A87EEA67AFCEEC77A17EED7
:10040000900AB3E71B6BC3F3080307EE903AF8EECC
:10041000E77A77EEA67A77EE867A9FED156AC6EED2
:10042000076A67EEA67ADDE71B6BC3F3080307EEE6
:10043000903AF8EEE77A77EEA67A77EE867A9FED35
:100440000D6AECE71B6BC3F3080307EE903AF8EE76
:10045000E77A77EEA67A77EE867A9FED076ADEE78F
:10046000064883E7064881E7004402580090D0031D
:100470000024744C001BB74B0024744A00366E01F4
:1004800000093D00836B0022A3F85E20A3F85620EC
:10049000704770B50D4C2668B568054214BF01253C
:1004A00000258D4201D100200FE05D1CF4D0E56CE9
:1004B000AD1AAB4201D3002BEED10423012084F806
:1004C0004130636C43F00103636470BDD0010024CC
:1004D000426A2DE9F0473AB1B1F1406F04D0504B78
:1004E0001C68836A013B2361D0F818A0D0E9077526
:1004F000BAF1000F4ED04A4B42EA0A0A46691C681C
:100500004AEA010AB6040368D0F834C0D0E90B9E69
:100510003DB38268D0F81080E2614AEA0502A7B1D3
:100520003B43C56843EA090343EA0E0343EA0C036D
:1005300043EA08032B4333431343B1F1406F636134
:1005400001D04368A361BDE8F08743EA090343EAA9
:100550000E0343EA0C0343EA080333431343636186
:10056000F1E767B13B43C26843EA090343EA0E037C
:1005700043EA0C031343334343EA0A03DDE743EA48
:10058000090343EA0E0343EA0C0242EA060343EA84
:100590000A03E4E715B3224B154346691C680D4373
:1005A0008368B604D0F834C0E3610369D0E90B8EE8
:1005B0005FB13B43C26843EA080343EA0E0343EAE0
:1005C0000C03134333432B43B7E743EA080343EADF
:1005D0000E0343EA0C0333432B43C0E787B1104BB0
:1005E0001C6842EA0703C26A0B431343026B1343BE
:1005F000426B1343C2681343426943EA82439CE758
:10060000002AA0D0064B1C68C36A1343026B0B433D
:100610001343426B1343426943EA82439FE700BF9F
:10062000D00100242DE9F041244C06460D46D4F8B3
:100630004C8094F84030012B3DD0012384F84030A9
:1006400094F84130012BDFB233D1422300214246DE
:100650002020616484F8413041F28833FFF719FFAC
:1006600010BB226830462B68296993626B6853621D
:10067000AB68D362136823F440030B434FF000616F
:1006800043F480031360EB68B362FFF721FF41F28C
:100690008833424639460820FFF7FBFE20B923681D
:1006A0000822DA6084F84170002384F84030BDE805
:1006B000F0810220F8E70220F9E700BFD001002412
:1006C00000B5002395B04FF480720E9369461393E2
:1006D00006A80B9300930493CDE90C23CDE91133C5
:1006E00010234FF0807202934FF480030F92052283
:1006F00005930123069203930193FFF793FF0028CC
:1007000014BF6FF00200002015B05DF804FB2DE966
:10071000F8431D4D8046D5F84C9095F84030012B9C
:100720002FD00123022685F8403095F84130012B67
:10073000DFB224D1002141F288334A462020696487
:1007400085F84160FFF7A5FE044690B94046FFF7E3
:10075000BFFED8F8243053B941F288334A463946AF
:100760003046FFF796FE044618B92B68DE6085F820
:100770004170002385F840302046BDE8F8833446B8
:10078000F7E70224F8E700BFD001002400B50023FA
:1007900095B04FF480700E9313930F930B93CDE9A4
:1007A0000C03CDE91133062306A80693FFF7AFFF2C
:1007B000E0B9022310224FF48001049006A8CDE98D
:1007C00000330123CDE902230522CDE905124FF0C4
:1007D00080726946CDE90F23FFF724FF002814BF7C
:1007E0006FF00200002015B05DF804FB6FF001000F
:1007F000F9E772B6FEE7FEE7FEE7FEE7FEE7FEE793
:10080000704770477047024AD36C0133D364704716
:10081000D001002470477047704770477047704799
:100820007047704770477047704770477047704710
:100830007047704770477047704770477047704700
:1008400070477047704770477047704770477047F0
:1008500070477047704770477047704770477047E0
:1008600070477047A44BDA68520713B500F1158141
:10087000DB6800230193A04B9A6942F440429A61DD
:100880009A6902F4404201929C4AD16A41F0010106
:10089000D162D26A02F001020192019A9A6992042D
:1008A000FCD5974B1A69996A02F03802102A07D0D2
:1008B000182A40F0048101F00302022A40F0FF8070
:1008C0001B688F4B1A6902F03802182A00F0248145
:1008D0001A688C4922F080721A60C86C1A689201FA
:1008E00000F1FE809A6A22F47C7222F0030242F048
:1008F00052029A62844A1A63DA6A22F00102DA62C8
:100900005A6B6FF3CF025A63DA6A22F00C0242F09C
:100910000802DA62DA6A22F00202DA62DA6A42F481
:100920008032DA62DA6A42F40032DA62DA6A42F477
:100930008022DA62DA6A42F00102DA621A6842F070
:1009400080721A606E4AC86C13689C0140F1CE80B8
:100950006E4A136813F00C0F00F01481684B9A690B
:1009600002F070023F2A40F21B81DA6902F0700245
:100970003F2A05D8DA6922F0700242F04002DA61BB
:100980005F4BDA6902F4E062B2F5806F05D2DA6992
:1009900022F4E06242F48062DA611A6A02F07002C4
:1009A0003F2A05D81A6A22F0700242F040021A6209
:1009B000534B9A69110705D49A6922F00F0242F04D
:1009C00008029A619A6922F470629A611A68920127
:1009D00040F1E4801A6941F288344A4922F0070262
:1009E00042F003021A61464AC86C136903F03803E7
:1009F000182B40F0DC80936903F00F03082B05D916
:100A0000936923F00F0343F0080393613F4A13688F
:100A100003F00F03042B00F2D080394B9A6902F0E7
:100A20007002402A00F2D580DA6902F07002402A92
:100A300005D9DA6922F0700242F04002DA61304BE7
:100A4000DA6902F4E062B2F5806F05D9DA6922F45E
:100A5000E06242F48062DA611A6A02F07002402AAF
:100A600005D91A6A22F0700242F040021A62FFF7BA
:100A700067FC234A264993699269C3F30323254AF5
:100A8000CB5C03F01F03D84010605068FFF738FBC1
:100A9000002840F0838002B010BDDA68194922F0C6
:100AA000070242F00202DA60C86C5A6894043FF50B
:100AB000E0AECA6C121AB2F57A7FF6D9D9E61A6896
:100AC0000F4942F480321A600E4AD06C0B689C03C6
:100AD0003FF5F7AED36C1B1A642BF7D972B6FEE75D
:100AE000CA6C121A022A7FF6F9AEF7E7CB6C1B1A12
:100AF000022B7FF629AFF1E70048025800040058A6
:100B000000440258D0010024BF020101002000521D
:100B1000C85C000800000024996A1A6B01F0030009
:100B20000228DBD101F47C715029D7D1C2F308012E
:100B3000BF29D3D102F47E41B1F5007FCED102F4BA
:100B4000FE01B1F5803FC9D102F0FE42B2F1807FD3
:100B5000C4D1596B4FF6F87211423FF4F9AEDA6A1C
:100B600022F00102DA621E4BD96CDA6C9142FCD0A1
:100B70001C4B5A6B6FF3CF025A63DA6A42F00102E0
:100B8000DA62E5E6136823F00F0343F00403136011
:100B9000136803F00F03042B3FF4E0AE72B6FEE7D8
:100BA0009A6922F0700242F040029A61DDE6CB6C55
:100BB0001B1AA3427FF619AFF0E7136823F00F0367
:100BC00043F004031360136803F00F03042BE5D113
:100BD00023E79A6922F0700242F040029A6123E70B
:100BE000D0010024004402581B4A1C49D2F8883026
:100BF00043F47003C2F88830194B1A6842F00102BE
:100C00001A6000221A61186801401960154999623A
:100C10001549D962154919635A639963DA631964EE
:100C20005A649A61DA611A629A621A635A639A6321
:100C3000DA631A645A64196821F4802119601A660B
:100C40000B4B1B686FF30F03B3F1005F03D2094B2B
:100C50000122C3F80821704700ED00E07FEDF6EABD
:100C600000440258000202020000FF01800201015C
:100C70000010005C008000510F49CA6822F4E06255
:100C8000120408B5120C0D4B1343CB60FFF758FB51
:100C90000B4A93699269C3F303230A4AD35C03F0B6
:100CA0001F03D840084B18600F20FFF729FA0038BF
:100CB00018BF012008BD00BF00ED00E00003FA05E9
:100CC00000440258C85C000800000024174B0020B4
:100CD000174ADA67174AD867C3F8802040F27122B2
:100CE000C3F88000C3F88420134AC3F88400C3F813
:100CF00088201822C3F88800C3F88C200F4AC3F854
:100D00008C00C3F890204FF49B72C3F89000C3F896
:100D100094200B4AC3F89400C3F89820094AC3F8FA
:100D20009800C3F89C20C3F89C0070470044025808
:100D30003150010023C0000AFF072803FFC3FFE86A
:100D40003330D731AADE2000064BD86810F00100FE
:100D500007D0054A5A6002F188325A60D86800F01C
:100D6000010070470020005223016745044BDA68F8
:100D700042F00102DA60D868C04300F00100704719
:100D800000200052F0B5704C4C2200218DB020465E
:100D900001F0B4FD6D4A20211020136823F00103F7
:100DA0001360002322600122636484F84130E56C03
:100DB000C4E90121C4E905321621C4E9073394F8D6
:100DC0004130C4E9030103F0FF02002B40F08A80A8
:100DD0005F4B092709924026D3F8D4205D4842F49E
:100DE0008042C3F8D420D3F8D42002F48042069283
:100DF000069ADA6F42F48042DA67DA6F22F48042B0
:100E0000DA67D3F8E02042F02002C3F8E020D3F8FC
:100E1000E02002F020020592059AD3F8E02042F08B
:100E20004002C3F8E020D3F8E02002F04002049230
:100E3000049AD3F8E02042F02002C3F8E020D3F86F
:100E4000E02002F020020392039AD3F8E02042F05F
:100E50002002C3F8E020D3F8E02002F02002029242
:100E6000029AD3F8E02042F02002C3F8E020D3F841
:100E7000E02002F020020192019AD3F8E01041F044
:100E80002001C3F8E01007A9D3F8E0300B9703F076
:100E900020030093009B0223089303230A934FF43B
:100EA00080630793FFF764F90A2300F580600796D3
:100EB0000B93FFF75DF94FF48073A0F58060079303
:100EC000FFF756F94FF400730793FFF751F98023AA
:100ED0000B970793FFF74CF90796FFF749F941F293
:100EE0008833A364194A00212020136843F4F8537F
:100EF00013602A46A36CFFF7CCFA10BB2268E569A1
:100F0000E36811682B43256A21F07F412B43656814
:100F100021F0D00143EA05630B4313605568D4E91F
:100F200005310B43216943EA01430B4929400B4337
:100F30005360136843F0010313600123606484F875
:100F400041300DB0F0BD00BFD00100240050005270
:100F50000044025800140258FEF8E0FF70B5234C1C
:100F60008EB094F85010002938D14FF48073E26CA1
:100F7000089106934FF400530D9103934FF440638F
:100F800007934FF04073099306230593EB230093D7
:100F900094F84030012BCDE90B1124D0012384F8C3
:100FA000403094F84130012BDEB21AD182236164C3
:100FB000202084F84130A36CFFF76BFA054680B916
:100FC00022684FF040616846136823F008031360FD
:100FD000FFF77EFA84F8405084F8506000200EB08D
:100FE00070BD84F840106FF00500F8E7D0010024D0
:100FF00030B591B04FF48074FFF7C4FE002302A80F
:101000000A930F930B930793CDE90843CDE90D3372
:1010100066230293FFF77BFB50B9FFF751FB38B90A
:10102000992302A80293FFF772FB08B9FFF748FB68
:101030004FF480734FF0807202A808934FF400536E
:101040000B92059300230A930F9309930793CDE91D
:101050000D3303230C939F230293FFF758FB10B12A
:101060003B4804F0E1FC3B4C2568E26CA96994F82C
:101070004030012B0AD0012384F8403094F84130ED
:10108000012B4FF0000305D084F84030324804F0C3
:10109000CBFC26E06364222384F841302B690133C2
:1010A000A3632B690133636301AB23636B6923F093
:1010B000406343F080636B61A961A36B5BBB41F24A
:1010C000883301210220FFF7E4F910B923680222D6
:1010D000DA60012384F84130002384F8403000288E
:1010E000D4D19DF805109DF80430090241EA03416E
:1010F0009DF806301943194B994225D1184804F040
:101100001FFCFFF72BFF0446C0B1164804F08CFC0F
:101110004FF0FF3415E041F2883301210620FFF73C
:10112000B8F90028D5D195F82010236B1970236BDE
:1011300001332363A36B013BA363BEE70A4804F0BA
:1011400073FC204611B030BD084804F0F9FBDFE71E
:10115000015F0008D00100241D5F00081740EF0068
:10116000385F0008515F00086A5F00087D5F000873
:1011700000B54FF480738FB04FF4806206934FF444
:101180000053079203930023019008930D93099352
:101190000593CDE90B3320230093FFF7F7FA60B9ED
:1011A0006846FFF7B4FA58B9FFF78AFA002818BF63
:1011B0006FF002000FB05DF804FB6FF00100F9E77B
:1011C0006FF00300F6E72DE9F04F9E4C8FB080469C
:1011D0000D4694F850301646002B75D0E26C94F80A
:1011E00041309B076AD50020216884F840000B68D5
:1011F0005F072BD50B6823F004030B60E36BD4F877
:101200004CC03BB193F83D70022F09D0802783F882
:101210003C009F66636C43F004036364012316E0A3
:101220001868C76827F03E07C760C76827F001073E
:10123000C760C76817F001071FD14FF01F0CC0F837
:1012400004C0012083F83C7083F83D0000238868C7
:10125000800656D50B68022043F002030B60012183
:10126000A36CFFF716F90146B8B1774804F0DCFB30
:101270006FF005000FB0BDE8F08FE76CA7EB0C072F
:10128000052FD6D9986E40F040009866002083F86C
:101290003C00032083F83D00BCE723680220D860AF
:1012A0002020A36CFFF7F5F80028DED122685369EF
:1012B00023F040635361012384F8413000236348E5
:1012C00084F8503004F0B0FB2E44614B2A4661484C
:1012D00006F1FF3905EA030BDFF880A109EA0309EB
:1012E000594604F02DFB5C48494604F029FBD945DA
:1012F0000DD24FF4005A4FF4806BAE4213D8002742
:101300001DE0012284F84120002BD7D0ADE75946DB
:10131000504604F015FB5846FFF72AFF074670B900
:101320000BF5805BE3E7EFB2731BC7F580779F4255
:1013300028BF1F46FFF72AFA38B16FF00107FFF701
:101340000DFE002F18BF384694E74FF48073CDF898
:101350000CA0089006934FF040730D900993322330
:10136000CDF81CB005900A9701950093CDE90B00CC
:10137000FFF70CFA0028E0D16846FFF7C8F910B172
:101380006FF00407DBE7E26C94F84030D4F800908B
:10139000012BF5D0012384F8403094F84130012B23
:1013A0004AD16064B8F1000F3FD0122384F8413075
:1013B000D9F810300133E362D9F81030C4F8248032
:1013C0000133A362D9F8143023F04063C9F8143014
:1013D000E36ABBB941F2883301210220FFF759F8D3
:1013E00010B923680222DA60012384F84130002317
:1013F00084F840300028C3D1FFF762F9F8B16FF0EC
:1014000002079CE741F2883301210420FFF741F8ED
:101410000028E9D1636A1B7889F82030636A0B449D
:101420006362E36A013BE362D2E7636C43F0080363
:10143000636484F84080A3E784F84000A0E73D445B
:10144000B8445AE7D0010024985F0008AE5F000856
:1014500000F0FFFFC55F0008EB5F0008FD5F0008BC
:1014600070B5A34C40F60F05606DC26903682A424F
:10147000816813D1960640F14D8103F0200501F0FB
:101480008056354300F04681D4F8C830002B00F078
:101490008B8004F15400BDE870401847954E964D7E
:1014A0000E401D40354300F03581D50709D5DD05D7
:1014B00007D501250562D4F8E45045F00105C4F8CC
:1014C000E450950709D5CD0707D502250562D4F864
:1014D000E45045F00405C4F8E450550709D5CD079C
:1014E00007D504250562D4F8E45045F00205C4F898
:1014F000E45015070BD503F02005354307D0082528
:101500000562D4F8E45045F00805C4F8E450160527
:101510000AD55D0108D54FF400650562D4F8E400F2
:1015200040F02000C4F8E400D4F8E40000283BD0E8
:1015300092060AD503F0200301F080510B4304D03A
:10154000D4F8C8300BB16D489847616DD4F8E420E9
:101550008B6802F0280203F04003134300F0C580BB
:10156000626D52E8003F23F4907342E80030002897
:10157000F6D1634D626D02F1080353E8003F2B4042
:10158000083242E800300028F4D1D4F8C030012BF2
:101590000BD02023C4F8E0300023C4F8C030C4F8D6
:1015A000C8308B685B060AD470BD626D52E8003F9C
:1015B00023F0100342E800300028F6D1E9E7626D1D
:1015C00002F1080353E8003F23F04003083242E8E9
:1015D00000310029F3D1D4F8D4000028E4D0494BDD
:1015E000036590F83530022B05D080234365BDE8B4
:1015F0007040FEF747BF0368434A934251D0183208
:1016000093424ED0183293424BD01832934248D076
:101610001832934245D01832934242D01832934246
:101620003FD0183293423CD002F55672934238D0E4
:101630001832934235D01832934232D01832934246
:101640002FD0183293422CD01832934229D018321E
:10165000934226D01832934223D01A6822F00E0209
:101660001A601A6822F001021A60284A934220D1B7
:10167000026E136823F480731360D0E9161303F02D
:101680001F02012393404B60D0E919325A60C36EA8
:1016900023B31A6822F480721A60D0E91C325A60AF
:1016A0001CE0042280F835201A6822F001021A603A
:1016B0007AE7174A9342DBD014329342D8D01432DF
:1016C0009342D5D014329342D2D014329342CFD029
:1016D00014329342CCD014329342C9D0012380F803
:1016E0003530002380F8343081E7C4F8E4305BE71C
:1016F000D001002401000010200100042402002475
:10170000FEFFFFEF85040008100002400854025855
:101710001C540258D4F8C050012D40F0B781D606B1
:1017200040F1B481DD0640F1B1811023036283688A
:10173000580640F17481D4F8D4209D481368834240
:101740001ED09C498B421BD018318B4218D01831C7
:101750008B4215D018318B4212D018318B420FD0EA
:1017600018318B420CD018318B4209D001F55671DB
:101770008B4205D018318B4202D018318B42FFD0FA
:101780005B689BB2002B3FF40FAFB4F8B0109942E6
:101790007FF60AAFA4F8B230D369B3F5807F3AD0B0
:1017A000626D52E8003F23F4807342E80031002963
:1017B000F6D1626D02F1080353E8003F23F0010304
:1017C000083242E800310029F3D1616D01F10803CC
:1017D00053E8003F23F04003083141E80032002A7B
:1017E000F3D12023C4F8E030C4F8C020626D52E881
:1017F000003F23F0100342E800310029F6D1D4F86D
:10180000D420E56C3AB192F83530022B09D0802310
:1018100082F8341053650223C4F8C430B4F8B230EF
:10182000C2E6136883425BD062498B4258D01831BC
:101830008B4255D018318B4252D018318B424FD049
:1018400018318B424CD018318B4249D018318B4221
:1018500046D001F556718B4242D018318B423FD0B1
:1018600018318B423CD018318B4239D018318B4221
:1018700036D018318B4233D018318B4230D01831EA
:101880008B422DD0196821F00E0119604A498B4214
:101890002FD1166E8342316821F4807131603DD0C2
:1018A00044498B423AD018318B4237D018318B42A1
:1018B00034D018318B4231D018318B422ED01831B0
:1018C0008B422BD018318B4228D001F556718B42B8
:1018D00024D018318B4221D018318B421ED01DE00C
:1018E000196821F01E011960596921F080015961C0
:1018F000CFE732498B42CCD014318B42C9D014315E
:101900008B42C6D014318B42C3D014318B42C0D02D
:1019100014318B42BDD014318B42BAD0196821F0FA
:10192000010119601968C9074AD4D2E916518342E6
:1019300001F01F0151D01F4883424ED0183083421E
:101940004BD01830834248D01830834245D01830ED
:10195000834242D0183083423FD0183083423CD07B
:1019600000F55670834238D01830834235D0183095
:10197000834232D0183083422FD0183083422CD08B
:101980001830834229D01830834226D01830834241
:1019900023D0012000FA01F1696007498B4220D170
:1019A000D2E919315960D36E8BBB01230FE000BF20
:1019B0001000024028000240085402581C540258EB
:1019C000E16C491B0529ADD920235365032382F817
:1019D0003530002382F834301DE73F238B40AB6065
:1019E000DEE740498B42DBD014318B42D8D0143132
:1019F0008B42D5D014318B42D2D014318B42CFD010
:101A000014318B42CCD014318B42CED1C8E7196847
:101A100021F480711960D2E91C315960C5E7B4F82E
:101A2000B230B4F8B220B4F8B0109BB292B2002A2F
:101A30003FF4BAAD99423FF4B7AD626D52E8003F52
:101A400023F4907342E800310029F6D12648616DF5
:101A500001F1080353E8003F0340083141E8003238
:101A6000002AF4D12023C4F8C820C4F8E030C4F818
:101A7000C020626D52E8003F23F0100342E80031BD
:101A80000029F6D10223C4F8C4308DE5D60205D56D
:101A90004D0203D54FF48013036285E510060CD583
:101AA00003F0800001F40001084306D0D4F8CC30E4
:101AB000002B3FF479AD0D48EDE452067FF574AD8F
:101AC0005B067FF571AD616D51E8003F23F0400387
:101AD00041E80032002AF6D12023C4F8CC20C4F813
:101AE000DC3061E51C540258FEFFFFEF24020024A5
:101AF000F0B52DED028BB0EE408B85B0154618EE9B
:101B0000902A0D9E0C9F002AB4BF2D2200221A702D
:101B100026F02003B8BFB1EE408B462B0C463DD0DB
:101B2000452B1CD0B0EE480B03AA019202AA0092EA
:101B30003B460A46022101F025F9672E1BD1EB072F
:101B40001DD50119B5EE408BF1EE10FA19D10B46F7
:101B50000E9A1B1A136005B0BDEC028BF0BD03AAF0
:101B60000134019202AA00923B4622460221B0EEC5
:101B7000480B01F007F9472EE3D1EB07E1D4039BB3
:101B8000E6E7039B9942E3D94FF0300C5A1C0392CD
:101B900083F800C0039B8B42F8D3D9E703AB0193D2
:101BA00002AB00930A463B460321B0EE480B01F01E
:101BB000E9F80378302B03D0396821440144C1E7A8
:101BC000B5EE408BF1EE10FAF6D0C4F101013960A8
:101BD000F3E700BF70B50029BABF49422D232B237C
:101BE000092982B0027043702BDD0DF10704194DF5
:101BF000A446A5FB0123DB0803EB8302A1EB420211
:101C00008E463032BEF1630F66460CF8012C194641
:101C10000CF1FF3CEDDCB31E3031A3420CF8011C8B
:101C200000F102050AD2421C13F8011B02F8011F41
:101C3000A342F9D10DF109039B1B1D44281A02B0E0
:101C400070BD30231944051D8370C170281A02B07D
:101C500070BD00BFCDCCCCCC2DE9F04F8DB00C4683
:101C6000DDF8589016461F46054600F09BFED0F85A
:101C700000A0504600F084FF00230A93D9F80030FA
:101C80000590073323F0070393ED000B9FEDA87B2E
:101C9000B0EEC06B0833B4EE476BF1EE10FA226879
:101CA00094F81880C9F8003084ED120B00F38D8091
:101CB000B4EE400BF1EE10FA80F131826168481CFD
:101CC00042F48062C34632D0B8F1670F51D0B8F108
:101CD000470F00F07F810023226003930AAB029339
:101CE00009AB0093CDF804800DF123032846FFF7DC
:101CF000FFFE8146B8F1650F099955D9B8F1660F15
:101D000000F07A810A9B8B4200F380812368216175
:101D1000DB0701D54B1C2361A1654FF0000B9DF83B
:101D20002330002B67D02D2384F8433063E0062155
:101D300000232260CDF80480616003930AAB029314
:101D400009AB009328460DF12303FFF7D1FEB8F14C
:101D5000670F814621D0B8F1470FCBD10999C81C34
:101D600003DB6368994240F324814FF0450BD8466A
:101D70001AE0002940F05B810121CDF80480226047
:101D80006160002303930AAB029309AB00932846DA
:101D90000DF12303FFF7ACFE81460999CB1C80F2BD
:101DA00004814FF0650BD8465A46013904F15000C2
:101DB0000991FFF70FFF0A9A1318012A834623613E
:101DC00040F3308101332361A9E7B5EEC00BF1EE9A
:101DD00010FA02D52D2384F8433022F00402564B2A
:101DE0002260564AB8F1470F94BF914699460323A3
:101DF00023614FF0000B009733460BAA214628467B
:101E000000F0CEF9013023D0236858052BD4236984
:101E10004A4631462846B847013019D02268E06862
:101E20000B9B920719D5984217DD04F119094FF061
:101E3000000804E0E0680B9BC21A42450DDD012357
:101E40004A4631462846B847013008F10108F1D129
:101E50004FF0FF300DB0BDE8F08F9842B8BF184684
:101E60000DB0BDE8F08FB8F1650F30D994ED127B5D
:101E7000B5EE407BF1EE10FA64D1314A01233146D0
:101E80002846B8470130E3D0DDE90938434502DB95
:101E90002268D107C3D5059B524631462846B8472C
:101EA0000130D5D0B8F1010F08F1FF3AB6DD04F1E9
:101EB0001A094FF0000801E0D045AFD001234A468F
:101EC000314628469844B8470130F5D1C0E7DDF8DF
:101ED0002880B8F1010F6FDD01234A4631462846BC
:101EE000B8470130B4D0059B524631462846B84722
:101EF0000130ADD094ED127BB5EE407BF1EE10FADF
:101F000008F1FF3A40F08A80B8F1010F5EDD04F17C
:101F10001A094FF0000801E0D04557D001234A4686
:101F2000314628469844B8470130F5D190E700BFC4
:101F3000FFFFFFFFFFFFEF7F246000082060000825
:101F400030600008099B002B7CDD0A9BD4F858B058
:101F500006935B45A8BF5B46002B984608DD4A46C2
:101F600031462846B84701303FF472AFD4F858B034
:101F700028EAE872934540F3A68004F11A03CDF8ED
:101F80001CA04FF0000893469A4605E0A36DA3EB12
:101F90000B02424540F394800123524631462846C5
:101FA0009844B8470130F1D152E7636899423FF74E
:101FB000F8AE4FF06708A5E6D9078DD44A4601234D
:101FC00031462846B84701303FF442AF5B4604F142
:101FD00050021EE7002961D0CDF804802260002362
:101FE00003930AAB029309AB009328460DF1230338
:101FF000FFF77EFD8146B1E6002963681BDD2161A4
:10200000002B51D001330B44236185E60029D4BF56
:10201000C1F102020122134423617DE6534609F116
:102020000102CDE72268D2077FF579AECAE6CDF886
:1020300004802260A5E6002B3BD12268D20738D469
:102040000123E9E7534A012331462846B8470130C6
:102050003FF4FEAEDDE9093858EA03032BD0059BB7
:10206000524631462846B84701303FF4F1AE099B4D
:10207000002B80F28B8004F11A0B4FF0000A04E071
:10208000099B5B42534540F3818001235A46314608
:1020900028469A44B8470130F2D1D9E60121CDF85B
:1020A0000480226061609AE72268D0077FF534AE31
:1020B000A8E70233B0E72268D3077FF5B0AECEE7DA
:1020C000DDF81CA09B46099B069A9A423EDC2268DA
:1020D000D0073BD4069AD31AA2EB0B0B9B45DA46EA
:1020E000A8BF9A462AEAEA7A53457FF797AEDDF809
:1020F00018B004F11A094FF0000807E0099BABEB98
:102100000303A3EB0A0343457FF788AE01234A4646
:10211000314628469844B8470130EFD198E610EE92
:10212000903A002BB8BF2D2322F00402B8BF84F8E8
:1021300043302260184B194AB8F1470F94BF9146BB
:102140009946032323614FF0000B54E6059B52464A
:1021500031462846B84701303FF47AAE069A099BCB
:10216000A2EB0B0AD31A9A45A8BF9A46BAF1000F00
:10217000B8DD09EB0B02534631462846B84701301B
:102180003FF466AE099B069AD31AABE743464A462C
:102190003FE600BF306000082C600008286000089F
:1021A0002DE9F84F92461F460A698B68DDF82890A2
:1021B0009A42B8BF1A46CAF8002091F843300C463C
:1021C000064613B10132CAF80020226891065FD595
:1021D000DAF800300233CAF80030226812F0060F35
:1021E00011461DD1E1689942D8BF114618DD04F1AE
:1021F000190B4FF0000805E0E568DAF80030ED1A39
:1022000045450CDD01235A4639463046C847013062
:1022100008F10108F0D14FF0FF30BDE8F88F2168D8
:1022200094F84330003B18BF01238A060AD5E11811
:102230005A1C302081F84300224494F8451082F85B
:102240004310023304F1430239463046C847013097
:10225000E1D02368DAF80050216903F00603042B6B
:10226000D4E902201BD08A4220DD4FF00008521A28
:1022700090441A34002501E0454517DA012322462F
:1022800039463046C847013005F10105F4D1C2E7AF
:1022900012F0060F0DD0003B18BF0123D2E7401B00
:1022A0008A4220EAE078E2DC0028E2DC0020BDE897
:1022B000F88FE168DAF800309942D8BF114696DC11
:1022C000AEE700BF2DE9F0470C4684B01746227EEA
:1022D0000C990646984604F1430C002A35D0A2F129
:1022E0005803D8B2202869D8202B67D8DFE813F02C
:1022F000E000660066006600660066006600660034
:102300006600660066009400700066006600660065
:1023100066007000660066006600660021008300AB
:10232000AE00660066009E006600830066006600E0
:10233000E6000B68226860691D1D0D6011061B68B0
:1023400002D4520600F1DC8018600023E1462361CC
:10235000CDF800803B4603AA21463046FFF720FF18
:10236000013020D023694A4639463046C047013003
:1023700019D02368E068DDF80C909B0718D5484514
:1023800016DD04F1190A002504E0E068A0EB09035A
:10239000AB420DDD0123524639463046C04701307D
:1023A00005F10105F1D14FF0FF3004B0BDE8F08731
:1023B0004845B8BF484604B0BDE8F08784F84220DD
:1023C000012004F142090023206184F84330BFE773
:1023D0000A682368101D0860180602D4590600F127
:1023E00093801068014600286268C0F291805348CB
:1023F0004FF00A0E4AE00B6820681D1D0D600506AF
:1024000001D441067ED419684C486F2A14BF4FF09E
:102410000A0E4FF0080E35E00B681A6804330B60A3
:1024200004F1420984F842200120CCE70B6862687D
:10243000181D0860D3F800900021484600F050FBBA
:10244000002879D0A0EB09006060BCE7236843F066
:102450002003236078223A4884F845200A68151D35
:102460000D601D064AD4590648D51188DD0744BFC2
:1024700043F02003236019B9236823F0200323606D
:102480004FF0100E0023626884F84330002AA260E7
:1024900016DB236823F00403236089B9002A45D1A1
:1024A000E146BEF1080F1CD0ACEB090323614FE7F6
:1024B000582384F8453021482368CFE72368C9E7CB
:1024C0007546E146B1FBF5F305FB131A0A46AA422D
:1024D00010F80A1009F8011D1946F3D2BEF1080FD1
:1024E000E2D12368D807DFD5626823699A42DBDC32
:1024F000302309F8013C09F1FF39D5E71168B5E748
:10250000188022E719887FE7B2F9001008466AE7C9
:102510002D20002AA26084F8430002DB23F004038C
:1025200023600A2505484942AE46CAE7037884F885
:10253000423004F14209B4E7606844E734600008BF
:1025400048600008024A0349034800F069B900BF27
:1025500008000024DD480008180000240C4B4168E6
:10256000994210B5044601D002F0B8F9A168094BB0
:10257000994202D0204602F0B1F9E168064B994237
:1025800004D02046BDE8104002F0A8B910BD00BF3D
:10259000B8020024200300248803002408B54B6EF1
:1025A000DA0702D48B899B0501D5002008BD886D10
:1025B00000F086FA002008BD08B54B6EDA0702D499
:1025C0008B899B0501D5002008BD886D00F080FA3D
:1025D000002008BD2DE9F843314C324BDFF8D8908C
:1025E000DFF8D880304FC4F838310025294604235D
:1025F000082204F15C002D4EE360C4E90055C4E9F3
:102600000455A5606566A56100F078F904F15800ED
:10261000C4E90849C4E90A87266300F049FA294653
:10262000234B6367082204F1C400C4E91A55C4E9C6
:102630001E552567C4F8CC50C4F8805000F05EF9F0
:1026400004F1680304F1C000C4F88830C4E9239899
:10265000C4E9257600F02CFA164BC4F8DC30294684
:1026600004F596700822C4E93455C4E93855C4F815
:10267000D850C4F83451C4F8E85000F03FF904F1E0
:10268000D003C4E93E87C4F8F49004F59470C4F80C
:102690000061C4F8F030BDE8F84300F009BA00BFAB
:1026A000B802002445250008D1280008F5280008B4
:1026B00009000100120002006928000891280008A2
:1026C000F8B506462A4800F0FBF92A4BD3F8383112
:1026D000002B43D0284FD7E90134013B04D524E037
:1026E0005A1C04F1680420D0B4F90C50013B002DB1
:1026F000F6D1224BE36004F15800656600F0D8F98A
:102700001B4800F0E5F9C4E90155C4E9045525600A
:10271000A5610822294604F15C0000F0EFF8C4E945
:102720000D55C4E912552046F8BD3D680DB12F4640
:10273000D1E74FF4D671304601F046FA044680B135
:102740000423056043600C302946A06025464FF401
:10275000D07200F0D3F83C602F46BCE7FFF73AFF99
:10276000B8E703483C6000F0B3F90C233360DAE7C4
:1027700014040024B8020024080000240100FFFF14
:1027800010B504460B4800F09BF9236A2BB90A4B9D
:102790000A4AD3F83831226223B1BDE81040054817
:1027A00000F096B9FFF716FFBDE81040014800F0B1
:1027B0008FB900BF14040024B80200245D2500086E
:1027C000014800F07DB900BF14040024014800F066
:1027D0007FB900BF1404002408B5054800F070F963
:1027E000BDE80840034A0449002000F019B800BFC2
:1027F00014040024080000249D25000808B5054A9B
:102800000549002000F00CF8BDE80840034800F03E
:102810005FB900BF08000024B92500081404002493
:102820002DE9F84380460F4616464FF00009D6E9D9
:102830000154013D11D4A389012B05F1FF3508D9BD
:10284000B4F90E300133214603D04046B84749EA77
:1028500000096B1C04F16804EDD13668002EE6D146
:102860004846BDE8F88300BF10B50C46B1F90E101C
:1028700000F0C8F8002803DB636D0344636510BDF6
:10288000A38923F48053A38110BD00BF00207047AB
:102890002DE9F0410C46B1F90C101F46CB05054659
:1028A00016460BD421F48051A1813B46B4F90E1099
:1028B00032462846BDE8F04100F0BAB8B4F90E102F
:1028C0000223002200F088F8B4F90C10EAE700BFF8
:1028D00010B50C46B1F90E1000F07EF8B4F90C30CA
:1028E000421C0EBF23F4805343F480536065A381E0
:1028F00010BD00BFB1F90E1000F05CB8830730B511
:1029000047D0541E002A3ED0CAB2034601E0013C23
:1029100039D303F8012B9D07F9D1032C2CD9CDB263
:1029200005EB05250F2C05EB054535D9A4F1100263
:1029300022F00F0C03F1100EE6444FEA121C1A4667
:10294000156055609560D56010327245F8D10CF174
:10295000010214F00C0F03EB021204F00F0C13D061
:10296000ACF1040323F003030433134442F8045B83
:102970009A42FBD10CF003042CB1C9B21C4403F8F9
:10298000011B9C42FBD130BD64461346002CF4D1A0
:10299000F9E703461446C0E71A46A446E0E700BF3D
:1029A000F0307047004870475401002400487047D9
:1029B0005401002438B5074D0022044608462A6019
:1029C00003F03AF8431C00D038BD2B68002BFBD035
:1029D000236038BDF403002438B50C46084D844606
:1029E000114620461A4600232B60644603F04CF83B
:1029F000431C00D038BD2B68002BFBD0236038BDB2
:102A0000F403002438B50C46084D84461146204690
:102A10001A4600232B60644603F03EF8431C00D0A6
:102A200038BD2B68002BFBD0236038BDF403002495
:102A300038B50C46084D8446114620461A460023F8
:102A40002B60644603F03EF8431C00D038BD2B6871
:102A5000002BFBD0236038BDF403002470B50F4B6E
:102A60000F4DAB42A3EB050607D0B610002455F876
:102A7000043B01349847A642F9D803F019F9094DEF
:102A8000094B5E1BAB424FEAA60606D0002455F860
:102A9000043B01349847A642F9D870BD7C61000818
:102AA0007C6100087C61000880610008704700BFFD
:102AB000704700BF704700BF704700BF704700BF3E
:102AC000704700BF0120704701207047704700BF6A
:102AD000704700BF00000000000000000000000080
:102AE00001F0FF01102A2BDB10F0070F08D010F8BF
:102AF000013B013A8B422DD010F0070F42B3F6D1C3
:102B0000F0B441EA012141EA014122F007047FF0DB
:102B100000070023F0E80256083C85EA010586EA32
:102B2000010685FA47F5A3FA87F586FA47F6A5FA6E
:102B300087F68EB9EED1F0BC01F0FF0102F007027A
:102B400032B110F8013B013A83EA010313B1F8D125
:102B50000020704701387047002D06BF3546033806
:102B6000073815F0010F07D1013015F4807F02BF3F
:102B7000013015F4C03F0130F0BC0138704700BF90
:102B800030B490F800F020F007016FF0000C10F066
:102B9000070491F820F040F048804FF000046FF0F7
:102BA0000700D1E9002391F840F000F1080082FA13
:102BB0004CF2A4FA8CF283FA4CF3A2FA8CF34BBBDE
:102BC000D1E9022382FA4CF200F10800A4FA8CF257
:102BD00083FA4CF3A2FA8CF3E3B9D1E9042382FA25
:102BE0004CF200F10800A4FA8CF283FA4CF3A2FA3A
:102BF0008CF37BB9D1E9062301F1200182FA4CF272
:102C000000F10800A4FA8CF283FA4CF3A2FA8CF3D8
:102C1000002BC6D0002A04BF04301A4612BAB2FAFA
:102C200082F200EBD20030BC7047D1E9002304F0FF
:102C30000305C4F100004FEAC50514F0040F91F834
:102C400040F00CFA05F562EA05021CBF63EA0503D1
:102C500062464FF00004AAE72DE9F04F03690C69C2
:102C6000A34283B0C0F28A80013C01F1140500F157
:102C7000140855F8243058F8242001339A428E461F
:102C800081464FEA840105EB840708EB840AB2FB16
:102C9000F3F63AD3CDE900150022AC464046134680
:102CA0005CF8041B05681FFA81FB06FB0B22090C6C
:102CB0004FEA124B06FB01BB92B2A9B2891A194422
:102CC0001FFA8BF3C3EB214303EB154389B241EAAF
:102CD0000341674540F8041B4FEA1B424FEA234378
:102CE000DED2DDE9001558F8013073B9AAF1040A03
:102CF000D04504D307E0D04504F1FF3403D25AF89D
:102D00000439002BF7D0C9F810407146484601F04D
:102D1000EFFA00282EDB4146002255F8040BD1F8CB
:102D200000C01FFA80FE1FFA8CF3A3EB0E031344BE
:102D3000020CC2EB234202EB1C429BB243EA024369
:102D4000AF4241F8043B4FEA2242E6D258F8242031
:102D500008EB84036AB9043B984504D307E098451F
:102D600004F1FF3403D253F80429002AF7D0C9F83C
:102D700010400136304603B0BDE8F08F002003B0AC
:102D8000BDE8F08F2DE9F04F2DED028BC4698FB0B7
:102D9000CDE904328DED020B57EC106B0546009126
:102DA000002C00F02F83216849B162684A6001233A
:102DB00093408B6000F0D0FFEB6900221A60B7F1FE
:102DC00000081A9AB4BF012300231360C44BBCBF90
:102DD00028F00048CDF80C8033EA080300F0A68004
:102DE0009DED028BB5EE408BF1EE10FA0FD1049AF7
:102DF000012313601B9B13B11B9ABA4B1360BA4B90
:102E0000019301980FB0BDEC028BBDE8F08F0DA9C6
:102E10000CAA2846B0EE480B01F0CEFB5FEA185131
:102E2000044640F09B80DDE90C01014401F232438D
:102E3000202B40F31483C3F1400308FA03F801F296
:102E4000124326FA03F348EA030307EE103AB8EEFA
:102E5000477B012317EE906A0A93013953EC172B35
:102E6000A6F1F8739FED983B9FED997B9FED9A5BE0
:102E700006EE901A43EC122BB8EEE64BB7EE086B59
:102E800032EE466BA6EE037BA4EE057BFDEEC76B30
:102E9000B5EEC07BF1EE10FA16EE909A08D5B8EEBA
:102EA000E66BB4EE476BF1EE10FA18BF09F1FF398B
:102EB000401AB9F1160F00F1FF3800F24F818B4E26
:102EC00006EBC90696ED007BB4EEC78BF1EE10FA67
:102ED0005BD50023B8F1000F09F1FF390993C0F267
:102EE000438100230693B9F1000F54DA069BCDF815
:102EF0002090A3EB09030693009B092BC9F1000A5C
:102F00004FF000094FD8052B40F3B082043B0093EB
:102F10000026009BD5F81CC0023B032B00F28385E2
:102F2000DFE813F00104FE03F603DA03049AC8F3A2
:102F3000130842F20F7358EA060813601ED11B9B58
:102F4000002B00F085856A4B019308331B9A01988A
:102F500013600FB0BDEC028BBDE8F08F18EE906AE5
:102F60000023C6F313060A9353EC182B46F07F5345
:102F70000C98A1F2FF3143F4401373E71B9B002B25
:102F800040F087835B4B01933BE7002840F340848C
:102F9000002309930693009BCDF82090092BC84489
:102FA0004FF0000AAFD900230126D5F81CC00093CA
:102FB00007964FF0FF3B05930021CCF80410CDF8A5
:102FC0002CB0284600F088FE0190002800F03485DF
:102FD000EB69019A1A60BBF10E0F00F2EC80002E33
:102FE00000F0E980089A002A40F3ED833F4E02F09A
:102FF0000F0306EBC30393ED007B1311D20540F1E1
:10300000B3833D4A92ED086B03F00F03032188EE72
:10301000064B5BB1384ADF0704D592ED006B0131F6
:1030200027EE067B5B1002F10802F4D184EE075B09
:10303000099B3BB1B7EE007BB4EEC75BF1EE10FA33
:1030400000F18A8407EE901AB8EEE76BB1EE0C7BC4
:10305000A6EE057B17EE901A53EC172BA1F15073D7
:10306000BBF1000F00F0948008995846FDEEC56B47
:1030700043EC142B16EE903A1C4E019F30335FFA4E
:1030800083FC079B06EBC002B8EEE67B12ED026BF9
:1030900035EE477B7A1C002B00F00F84B6EE003B28
:1030A00083EE065B35EE445BB4EEC75BF1EE10FADF
:1030B00087F800C000F33B84B7EE002BB2EE044B60
:1030C000002633E0AFF3008061436F63A787D23FF0
:1030D000B3C8608B288AC63FFB799F501344D33F07
:1030E0000000F07F3160000830600008E85C0008F4
:1030F0005C60000868600008D85D00080136864200
:1031000059DA27EE047B25EE045BFDEEC76B16EE65
:10311000903AB8EEE63B303337EE437BB4EEC57BF6
:10312000F1EE10FA02F8013B00F1018432EE476B38
:10313000B4EEC56BF1EE10FAE0D5019E13460131F5
:1031400002E09E4200F027841A4613F8010D392848
:10315000F7D00130C0B2187000913DE10123B8F101
:10316000000F0993BFF6BDAEC0F1010306934FF007
:103170000008B8E607EE901AB1EE0C6BB8EEE77BEC
:10318000A7EE056B16EE901A53EC162BA1F15073B7
:1031900043EC162BB1EE047B35EE477BB4EEC67BD9
:1031A000F1EE10FA00F30684B1EE466BB4EEC67B86
:1031B000F1EE10FA1CD40D9B002B56DB089A0E2A58
:1031C00053DCAB4E089B06EBC306059B002B96ED2C
:1031D000006B15DABBF1000F12DC09D1B1EE047BF4
:1031E00026EE077BB4EEC78BF1EE10FA00F2E28315
:1031F0004FF0000A019A5746059B6FEA030B09E25C
:1032000088EE067BBDEEC77B019B17EE102ABBF153
:10321000010F02F13002B8EEC75B03F8012BA5EEF7
:10322000468B00F00083B2EE044B012211E088EEE1
:10323000067BBDEEC77B013217EE101A5A4501F12D
:103240003001B8EEC75B03F8011BA5EE468B00F01A
:10325000EA8228EE048BB5EE408BF1EE10FAE6D14F
:10326000089A013200921A46B6E0079A002A40F006
:10327000DD800023069E0793CDF828A01F4666B187
:10328000B8F1000F09DD4645069A3346A8BF43460C
:10329000D21A0692F61AA8EB0308BAF1000F0BD067
:1032A000079B1BB10A9B002B40F0F182214652463E
:1032B000284600F039FF04460121284600F068FE48
:1032C0008246B9F1000F40F0CF81009B012B40F303
:1032D000E4810120404410F01F0000F0A080C0F104
:1032E0002003042B40F3F381069BC0F11C00034430
:1032F000069306448044069B002B05DD21461A46B2
:10330000284600F081FF0446B8F1000F05DD514664
:103310004246284600F078FF8246099B002B40F089
:103320008681BBF1000F40F35881079B002B40F0D2
:10333000AF80089B01330093DDF80480012607E08D
:10334000214600230A22284600F02AFD01360446C1
:1033500051462046FFF780FC5E4500F1300308F837
:10336000013BEDDBBBF1000F019ACCBFD8464FF01B
:10337000010890440026214601222846029300F0CD
:1033800043FF5146044600F0B3FF002840F3FB81A1
:10339000019902E0884500F00F82424608F1FF38AB
:1033A00012F8013C392BF5D0013388F80030514632
:1033B0002846029200F0D0FC029A6FB136B1BE42AC
:1033C00004D03146284600F0C7FC029A02923946E2
:1033D000284600F0C1FC029A02922146284600F0DD
:1033E000BBFC029A009900231370049B19601B9B7D
:1033F000002B3FF406AD01981A600FB0BDEC028BB4
:10340000BDE8F08F102000F0ABFB0246E861002819
:1034100000F02E83C0E900448460C460CFE41C2324
:10342000069A1A4406921E44984464E7009A012AB8
:1034300040F3B4810BF1FF329245C0F27E81AAEBDA
:103440000203BBF1000F0A9380F2BA82069BA3EB42
:103450000B060121284600F09BFD07460FE7C3F14C
:10346000200306FA03F307EE103AF0E4012650E5D4
:10347000E85C0008394600230A22284600F090FC48
:103480000B9B002B074640F3C382CDF820809B4660
:10349000002E00F34B81B9F1000F40F0DB81B946FB
:1034A000019E731E5B440993029B03F001030A9380
:1034B00051462046FFF7D0FB39468346204600F0B0
:1034C00017FF4A4651468046284600F033FFC2683F
:1034D00001460BF13003002A38D1CDE9060320461E
:1034E00000F006FF06990590284600F035FC059A85
:1034F000079B002A5DD1009A1AB90A9A002A00F0A7
:103500006982B8F1000F45DB099AB046B24208F86B
:10351000013B00F0B681214600230A22284600F034
:103520003FFC4F45044639464FF000034FF00A0276
:10353000284638D000F034FC4946074600230A22CA
:10354000284600F02DFC46468146B1E72846059303
:1035500000F002FCB8F1000F059B08DB029A00990D
:1035600002F0010248EA010852EA08022FD121467E
:1035700001222846009300F047FE5146044600F021
:10358000B7FE0028009B40F3F380392B00F0078240
:103590000BF13103324602F8013B089B01333E46F2
:1035A00000934F4603E700F0FBFB46460746814683
:1035B0007EE7B8F1000FC0F24F82009948EA010897
:1035C0000A9951EA080800F04782002A9CDD392B4D
:1035D00000F0E58132460133DDE7009B022B7FF7E7
:1035E000A4AEBBF1000F40F01C8151465B460522A2
:1035F000284600F0D5FB01468246204600F078FEC2
:10360000002840F30E81089B019A03F1010B31233E
:1036100002F8013B0BF10103514628460292009348
:1036200000F09AFB029A002F7FF4D0AED4E6514608
:10363000204600F05DFE0028BFF673AE2146002351
:103640000A22284600F0ACFB089B03F1FF38079BD9
:103650000446002B7FF40EAF0B9B002B40F3C2817E
:10366000089A00929B4667E601464A46284600F0C3
:103670005BFD009B012B82466BDD4FF00009DAF801
:1036800010300AEB8303186900F030FCC0F1200011
:1036900020E6AD4B0193033358E4029B002B7FF4EB
:1036A00018AEDDE90212C2F31303002B7FF411AE52
:1036B000A64B13402BB1069B0133069308F101087A
:1036C0000123B9F1000F40F07981994601E63FF4FA
:1036D00012AEC0F13C03A3E601230793059B089AB1
:1036E000134403F1010B5F46012F0B93B8BF012771
:1036F000172F40F3A881012204235B0003F114007B
:10370000B842114602F10102F7D9CCF8041058E48E
:1037100001230793059F002F31DD0B97BB46E7E799
:1037200000230793DAE700230793F3E7394632468D
:10373000284600F069FD0746ADE6A2EB0A0399446E
:10374000069B1E465B4406930023D84492460A9388
:103750007FE6029B002B90D1DDE90201C1F3130348
:103760000A46002B89D1A3E70221B0EE484B50E472
:103770007FF410AFDA073FF508AF32460BE70123BD
:1037800005939B4618E403D1029BDB073FF500AE8F
:10379000424618F8013D302BFAD008E60A9A002A72
:1037A00000F0C88003F23343069ACDF828A01646ED
:1037B0001A44984406924CE6009B01990133009309
:1037C00031230B70F3E500F0B980089B604E5B423B
:1037D00003F00F0206EBC20292ED006B1B1128EE04
:1037E000066BB0EE465B00F01B815A4A00200221B6
:1037F000DE0705D592ED007B0131012025EE075B48
:103800005B1002F10802F3D1002806FE055B0FE40D
:10381000C0F101034FF000080693CDF82480FFF7B4
:10382000BABB019AE8E4089938EE088B0131B4EE8E
:10383000C68BF1EE10FA009108DCB4EE468BF1EE87
:1038400010FA05D117EE102AD00701D5019E7BE4AE
:103850001A46C1E57968284600F03EFA0646002877
:1038600000F0FF803B6902339A0007F10C010C3035
:1038700001F086F831460122284600F0C5FC814659
:103880000EE6089A01323E4600924F4673E51A460C
:103890003946284600F048FC22460146074628469D
:1038A00000F08CFB21460446284600F055FA0A9B9E
:1038B000BAEB030A3FF400ADF8E4019B24EE063BAB
:1038C000012883F800C000F0A180B2EE044B019BF8
:1038D000034427EE047BFDEEC76B16EE900A3030F2
:1038E00002F8010B9342B8EEE65B37EE457BF0D170
:1038F000B6EE006B33EE065BB4EEC57BF1EE10FA6C
:1039000064DC36EE436BB4EEC67BF1EE10FA08D4FD
:103910000D9B002BFFF6ADAC089B0E2B3FF7A9AC1F
:1039200050E41A46013B12F8010C3028F9D04B1C28
:10393000009351E50C9BC3F1360335E70221B0EE4D
:10394000485BFFF775BB00BF686000080000F07FB0
:10395000E85C0008D85D0008BBF1000F3FF40AAC3A
:103960000B9800287FF727ACB2EE044B25EE045BE2
:10397000013107EE901A089BB8EEE76BB1EE0C7BB5
:10398000A5EE067B17EE906A591E53EC172BA6F195
:103990005073FFF76BBB01313120FFF7DCBB089B95
:1039A0000199B0460133009339233E4608F8013BA4
:1039B0004F46F2E44FF0000A574624E699465EE689
:1039C000069B1E465B44D844069342E5019E0131A6
:1039D000FFF7BABB392BE2D0B8F1000F3FF7D8ADF3
:1039E0003246D8E5009B022B0BDC089B0093514626
:1039F000DDF82CB0FFF730F9019A00F130031370B5
:103A0000B0E4DDF82CB0CDF82080EAE513466FE78E
:103A1000009B022BF5DCDDF82CB0CDF8208037E5DB
:103A20000221FFF705BB0026CCF80460314628468A
:103A300000F052F9019000BB164B1748002240F2EB
:103A4000AF1101F037F80021CCF80410FFF7B9BA34
:103A5000124B0193FFF7D5B9002A3FF788AD3246E4
:103A600099E50C4B0C48324640F2EF2101F022F868
:103A70000B4B0948EF2101F01DF8EB69019A1A6020
:103A80004FF0FF330B939B46012305960793FFF7F7
:103A900092BB00BFC0600008846000085C60000842
:103AA0006C600008002950D038B551F8043C0C1F58
:103AB000002BB8BFE418054600F002F9274A136846
:103AC0002BB1A3420CD92168601883422CD06360CB
:103AD00028461460BDE8384000F0F8B8A3420FD87B
:103AE0001A465B68002BF9D111685018844217D030
:103AF0002CD3636054602846BDE8384000F0E6B837
:103B000011685018A04214D020D821686018834250
:103B1000EFD118685B680844C4E900035460EAE721
:103B200023680B441360E6E718685B68084420606C
:103B3000CDE720680144501883421160DBD1D3E9FE
:103B400000040144C2E90014D5E770470C232B6040
:103B50002846BDE8384000F0B9B800BF1C04002476
:103B6000024B0146186800F02FB800BF1400002473
:103B7000024B01461868FFF795BF00BF14000024F0
:103B800070B5104E336805460C46B3B12146284641
:103B900000F0E4FE431C0CD0C41C24F00304A0423B
:103BA00005D0211A284600F0D9FE013001D0204668
:103BB00070BD4FF0FF34204670BD194600F0CEFEB8
:103BC0003060E3E7180400242DE9F041CD1C25F016
:103BD000030508350C2D38BF0C25002D82B0064694
:103BE00016DBA94214D8354F00F06AF87A68AAB1FA
:103BF000144603E06368224683B11C4623685B1BBE
:103C0000F8D40B2B21D8A242636855D053600DE045
:103C10000C233360002002B0BDE8F0812946304615
:103C2000FFF7AEFF431C044619D00560304600F094
:103C30004DF804F10B00231D20F00700C21A1CBF31
:103C40001B1AA35002B0BDE8F0816119A2422560A1
:103C500014BF51607960635163684B60E6E77B682D
:103C600023B31C465B68002BFBD1226801931946E5
:103C7000304604EB020800F071FE804516D1226840
:103C8000AD1A29463046FFF77BFF01300ED022687F
:103C90007868019B2A442260426812B90CE0104601
:103CA0005268A242FBD100234360BFE70C2333607C
:103CB000304600F00BF8ADE77B60B7E7180400244E
:103CC0000148FEF7FDBE00BF080400240148FEF7CE
:103CD000FFBE00BF0804002470B5C66905460C4647
:103CE0005EB1F368A3B153F82400E8B1026843F869
:103CF00024200023C360036170BD1020FFF730FF54
:103D00000646E861E8B10023C0E900338360C36080
:103D100021220421284600F0F3FEEB69F060DB6805
:103D2000002BE0D1002070BD012101FA04F6721DC4
:103D30009200284600F0E4FE0028F3D0C0E90146D6
:103D4000D7E7034B034832466B2100F0B3FE00BFB8
:103D50006C600008D460000870B5C66905460C4662
:103D60004EB13CB1EB696268DB6853F82210216008
:103D700043F8224070BD1020FFF7F2FE0246E861D2
:103D800020B1C0E900668660C660EAE7024B0348DE
:103D90008F2100F08FFE00BF6C600008D460000827
:103DA0002DE9F0410D6907460E461C4601F1140E3F
:103DB0000020DEF800108BB202FB03434FEA134CE5
:103DC000090C02FB01CC01309BB203EB0C43854292
:103DD0004EF8043B4FEA1C44EBDC3CB1B368AB4209
:103DE00007DD06EB850301355C6135613046BDE8D2
:103DF000F081716838460131FFF76EFF804690B15F
:103E00003269023206F10C0192000C3000F0B8FD6C
:103E1000314638464646FFF79FFF06EB85030135DE
:103E20005C613561E2E7034B03484246BA2100F08A
:103E300041FE00BFC0600008D46000082DE9F843CF
:103E40001746274A1E4608330C46092E82FB0312EA
:103E50004FEAE3730546C3EB620339DD4FF0010C13
:103E600000214FEA4C0C634501F10101F9DC2846C1
:103E7000FFF732FF014668B3089B4361092F4FF0FB
:103E80000103036112DC0A340927BE420BDDF61B75
:103E9000264414F8013B0A22303B2846FFF780FFF6
:103EA000A6420146F5D10846BDE8F88304F10909A8
:103EB000C8463C4418F8013B0A22303B2846FFF72D
:103EC0006FFFA0450146F5D1A7F108044C44DCE79B
:103ED0000021CCE70A46034B0348D32100F0EAFD5A
:103EE000398EE338C0600008D4600008B0F5803F28
:103EF000034636BF030400201020B3F1807F3CBF8F
:103F00001B020830B3F1805F3CBF1B010430B3F1EA
:103F1000804F03D3002B06DB013070479B0003D496
:103F20005B0003D420207047023070470330704795
:103F3000036813F00702014607D0DA071FD4980779
:103F400021D55B080B600120704798B2A0B11046E4
:103F5000DAB20AB908301B0A1A0704BF1B09043079
:103F60009A0704BF9B080230DA0703D45B0800F10C
:103F7000010006D00B6070471B0C1020E8E7002002
:103F80007047202070479B080B600220704700BFDD
:103F900010B50C460121FFF79FFE024618B1012320
:103FA000C0E9043410BD034B034840F2451100F052
:103FB00081FD00BFC0600008D46000082DE9F04F0B
:103FC000D1F810801569A84585B00E46924605DBEC
:103FD0002A46534645468A4690461E46DAF8083039
:103FE000DAF8041005EB0804A342B8BF0131FFF76B
:103FF00073FE8446002800F08B8000F1140707EB65
:10400000840E774505D23B46002243F8042B9E459B
:10401000FBD8143606EB88080AF11409464509EB6B
:10402000850566D2A5EB0A03153B23F003030AF1CD
:10403000150A043355452CBF9B464FF0040BCDF8B1
:1040400008E00394AE46E24605E0090C2AD1B045EB
:1040500007F104074AD956F8041B8DB2002DF4D09D
:10406000CC463C46002301965CF8040B216886B2DE
:104070008AB2000C05FB0622090C1A4405FB00114C
:1040800001EB124192B242EA0142E64544F8042BA8
:104090004FEA1143E8D8019E47F80B3056F8041C4C
:1040A000090CD4D03B68002248461D463C46944645
:1040B000028801FB02C202EB15429BB243EA0243B3
:1040C00044F8043B50F8043B25684FEA134CABB26C
:1040D00001FB0C3303EB124386454FEA134CE7D840
:1040E000B04547F80B3007F10407B4D8DDE902E426
:1040F000D446002C02DC05E0013C03D05EF8043D10
:10410000002BF9D06046CCF8104005B0BDE8F08F28
:10411000034B044862464FF4B17100F0CBFC00BF82
:10412000C0600008D46000082DE9F04112F00303DC
:1041300082B0144607462DD10E46A4101CD0FA6951
:104140008AB39568002D39D0E3074FF0000806D4F4
:10415000641011D0286898B10546E307F8D53146B8
:104160002A463846FFF72AFF3146034638461E46A0
:10417000FFF7F2FD6410EDD1304602B0BDE8F081EA
:104180002A4629463846FFF719FF2860C0F8008004
:104190000546E2E7013B184A52F823200023FFF7C7
:1041A000FFFD0646C9E71020FFF7DAFC0246F8617A
:1041B000E0B10023C0E900338360C36001213846C9
:1041C0000192FFF789FD019A054640B1012340F2B3
:1041D0007121C0E90431002390600360B4E7074B0C
:1041E00007482A4640F2451100F064FC054B04489C
:1041F00040F2B31100F05EFCD85C0008C06000081B
:10420000D46000086C6000082DE9F0470D46914627
:104210002B69496803EB6218AB6808F101049C4202
:1042200007464FEA621A04DD5B009C4201F101017E
:10423000FADC3846FFF750FD064600284DD0BAF1AB
:10424000000F00F114000EDD0AF105024FEA820CA6
:10425000034606EB8202002143F8041B9342FBD184
:10426000ACF114031844296905F1140319F01F096E
:1042700003EB810129D0C9F1200E84464FF0000ADA
:104280001A6802FA09F242EA0A024CF8042B53F8BF
:10429000042B994222FA0EFAF2D84B1B153B23F05D
:1042A0000303043305F11502914238BF042340F89B
:1042B00003A0BAF1000F00D14446384634612946C4
:1042C000FFF74AFD3046BDE8F087043853F8042B69
:1042D00040F8042F9942F9D8EEE7034B03483246E1
:1042E0004FF4EF7100F0E6FBC0600008D4600008F6
:1042F0000B6984460069C01A16D10CF1140C1431F4
:104300000CEB830210B401EB830301E0944508D267
:1043100052F8044D53F8041D8C42F7D005D24FF0EB
:10432000FF305DF8044B7047704701205DF8044B87
:10433000704700BF2DE9F04F13690F69FF1A002F76
:1043400083B00D46904615D101F11406143202EBEC
:10435000830206EB830301E09E4276D253F8044DBC
:1043600052F8041D8C42F7D006D22B460127454651
:10437000984601E0F9DB00276968FFF7ADFC81464C
:10438000002876D02E69C760D8F8100005F1140B0C
:1043900008F1140E09F1140A05F110010EEB80006A
:1043A0000BEB860257464FF0000CCDF804B05EF8D8
:1043B000044B51F8045F1FFA84FBABB2A3EB0B0371
:1043C000240C6344C4EB154404EB23449BB243EA3E
:1043D0000443704547F8043B4FEA244CE7D8A0EB70
:1043E0000801153989084C1CDDF804B008F11508DE
:1043F000A400404538BF04240BEB0405AA425444F2
:1044000030D92746284650F8043B1CFA83FE190C85
:10441000634401EB2E419BB243EA0143824247F8D9
:10442000043B4FEA214CEED8013A521B22F0030222
:10443000144423B954F8043D013E002BFAD04846F9
:10444000C9F8106003B0BDE8F08F0021FFF744FC0D
:104450008146A8B101220023C0E90423484603B0E5
:10446000BDE8F08F8900404538BF00210AEB010408
:10447000DFE7074B07484A4640F2452100F01AFBA8
:10448000034B04484A4640F2372100F013FB00BFBB
:10449000C0600008D460000882B08DED000B164BA0
:1044A000019A1340A3F15073002B06DD0022194638
:1044B000104641EC100B02B070475B42B3F1A07F95
:1044C0004FEA235209DA4FF4002313410022194620
:1044D000104641EC100B02B07047A2F114031E2BE2
:1044E000DABF4FF00042DA4001220023194610469D
:1044F00041EC100B02B070470000F07FF8B5046982
:1045000000F1140606EB8404271F54F8045C2846C7
:10451000FFF7ECFCC0F120030A280B6033DDBE423C
:10452000A0F10B0119D254F8080C21B3C1F12007F6
:104530008D4020FA07F215438840A4F1080145F0A8
:104540007F538E4243F4401319D254F80C1CF940A7
:104550000843024643EC102BF8BD0B280AD005FA9D
:1045600001F141F07F53002043F44013024643EC35
:10457000102BF8BD002045F07F5343F44013024652
:1045800043EC102BF8BDC0F10B0C25FA0CF1BE4228
:1045900041F07F5338BF54F8081C00F1150034BFB8
:1045A00021FA0CF1002105FA00F0084343F440130E
:1045B000024643EC102BF8BD2DE9F0430E4683B0C4
:1045C000012159EC108B1546FFF786FB04460028A5
:1045D00046D0C9F30A57C9F313030FB143F480134C
:1045E0000193B8F1000313D101A8FFF7A1FC019BCF
:1045F00063610122203022610FB3A7F233470744E1
:10460000C0F1350037602860204603B0BDE8F08374
:1046100068460093FFF78CFC019BF8B10099C0F14C
:10462000200203FA02F2C3400A430193002B6261A5
:104630000CBF01220222A3612261002FDDD104EB15
:104640008203A0F2324030601869FFF74FFCC0EBE4
:1046500042102860204603B0BDE8F083009AE5E7E9
:10466000034B0448224640F20F3100F023FA00BF0A
:10467000C0600008D460000830B583B00C466946BD
:104680000546FFF73BFF204601A9B0EE407BFFF750
:1046900035FF23692A69D21ADDE900341B1B03EBBD
:1046A0004213002B0BDD17EE902A51EC170B02EB97
:1046B000035141EC170B87EE000B03B030BD10EE39
:1046C000902A55EC104BC3EB033302EB035545EC3A
:1046D000104B87EE000B03B030BD00BF172808DD7C
:1046E000B7EE000BB2EE047B013820EE070BFBD1D6
:1046F0007047034B03EBC00393ED040B704700BFFF
:10470000D85C00080139491101F1010C116902F16D
:10471000140303EB81018B4200EB8C0C16D210B515
:10472000A0F1040E53F8044B4EF8044F9942F9D807
:104730008B1A153B23F0030304331844844504D932
:10474000002340F8043B8445FBD810BD844505D9BF
:10475000002340F8043B8445FBD87047704700BFF6
:1047600003694A11934200F1140009DA00EB830354
:1047700002E053F8042DAAB98342FAD8002070470A
:1047800000EB8203F8DD11F01F01F5D010B450F8F2
:10479000224024FA01F28A40944209D001205DF8B7
:1047A000044B70470120704753F8042D002AF5D1BF
:1047B0008342F9D800205DF8044B7047B1F90C3002
:1047C0001A072DE9F0410C4680463DD44A68002A7C
:1047D00056DDE56A002D34D00022D8F80060C8F814
:1047E000002013F48052216A57D101234046A84784
:1047F000431C024661D0B4F90C30E56A216A5F07B8
:1048000005D56368D21A636B0BB1236CD21A0023EF
:104810004046A847451C42D00023636023692360BB
:10482000A389D90400D56065616BC8F8006041B107
:1048300004F14403994202D04046FFF733F90023C4
:1048400063630020BDE8F0810E69002EF9D09B075C
:104850000D6808BF4B690E6018BF0023AD1B8B604D
:104860000BE02B463246216AA76A4046B847B0F1B2
:10487000000CA5EB0C05664406DD002DF1DCE0E73D
:104880000A6C002AA5DCDCE7B4F90C3043F04003E5
:10489000A3814FF0FF30BDE8F081626DAFE7D8F83B
:1048A0000020B4F90C309AB11D2A01D0162AEDD19E
:1048B00023690022C4E90032B6E7D8F80030002BA3
:1048C00099D01D2B01D0162BDED1C8F80060B8E7B7
:1048D000626022692260DA04A5D4A5E738B50B69C5
:1048E000CBB10C46054608B1036ABBB1B4F90C3034
:1048F0008BB1626ED00701D4990512D528462146A6
:10490000FFF75CFF636EDA07054602D4A3899B05B7
:104910000BD5284638BD0025284638BDFDF730FFA9
:10492000E4E7A06DFEF7CCF8E8E7A06DFEF7D0F85D
:10493000EFE700BF014618B1044B1868FFF7CEBF80
:10494000034A04490448FDF76BBF00BF140000246C
:1049500008000024DD4800081800002438B5074D81
:104960000022044608462A6001F09EF8431C00D04D
:1049700038BD2B68002BFBD0236038BDF403002426
:10498000844641EA000313F003036DD1403A41D35A
:1049900051F8043B40F8043B51F8043B40F8043B19
:1049A00051F8043B40F8043B51F8043B40F8043B09
:1049B00051F8043B40F8043B51F8043B40F8043BF9
:1049C00051F8043B40F8043B51F8043B40F8043BE9
:1049D00051F8043B40F8043B51F8043B40F8043BD9
:1049E00051F8043B40F8043B51F8043B40F8043BC9
:1049F00051F8043B40F8043B51F8043B40F8043BB9
:104A000051F8043B40F8043B51F8043B40F8043BA8
:104A1000403ABDD2303211D351F8043B40F8043B48
:104A200051F8043B40F8043B51F8043B40F8043B88
:104A300051F8043B40F8043B103AEDD20C3205D358
:104A400051F8043B40F8043B043AF9D2043208D050
:104A5000D2071CBF11F8013B00F8013B01D30B88C2
:104A600003806046704700BF082A13D38B078DD0A0
:104A700010F003038AD0C3F10403D21ADB071CBF72
:104A800011F8013B00F8013B80D331F8023B20F8DC
:104A9000023B7BE7043AD9D3013A11F8013B00F815
:104AA000013BF9D20B7803704B7843708B7883709D
:104AB0006046704700B50B4C25681446EE681A46F0
:104AC00085B003460D464CB107490095CDE9011468
:104AD0003046064900F06EF800F080F804490C46B4
:104AE000F3E700BF140000242061000830610008D3
:104AF0002C61000808B513460022FFF7DBFF00BF5A
:104B000070B5A1FB025454B92946FFF75DF806467B
:104B100038B12A462146FDF7F1FE304670BD0C2221
:104B200002600026304670BD10B4034CD4F8E44057
:104B3000A4465DF8044B60476400002482B049B18C
:104B40005AB16BB113780B601278101E18BF012098
:104B500002B0704701A9002AF3D1104602B0704795
:104B60006FF00100F4E700BF10B4034CD4F8E0404C
:104B7000A4465DF8044B60476400002449B1FF2A55
:104B800002D80A70012070478A2303604FF0FF307B
:104B900070470846704700BF0CB400B583B004AB43
:104BA00053F8042B019300F067F803B05DF804EBB1
:104BB00002B070470EB410B583B005AB064C53F885
:104BC000042B01930146206800F056F803B0BDE8BD
:104BD000104003B0704700BF1400002408B5062041
:104BE00000F0FCFC012000F075FF00BF9368013B62
:104BF000002B936011DA10B49469A34209DB0A29EF
:104C000007D01368581C1060197008465DF8044BF3
:104C100070475DF8044B00F01DBB1368581C106012
:104C200019700846704700BF9BB1F8B5134406469B
:104C30000F46541E5D1E01E0AC4208D014F8011F5F
:104C40003A463046FFF7D2FF431CF5D1F8BD0020AD
:104C5000F8BD0020704700BF936810B514461BB91B
:104C600018460023636010BD00F074F90023A360B0
:104C70000023636010BD00BF2DE9F04FA1B08B464B
:104C800091461C46049018B1036A002B00F047813E
:104C9000DBF86420BBF90C30D20702D49F0540F149
:104CA00037811E0740F19E80DBF81030002B00F0AA
:104CB00099800023CA460D9343F22003ADF83930A2
:104CC0009AF80030974E07940127002B7AD0D146EE
:104CD00004E019F8013F002B00F09A80252BF8D151
:104CE000B9EB0A0840F0978099F80030002B69D0A2
:104CF00000234FF0FF32CDE9092309F101090893A0
:104D00000B938DF863301E9305E0089A07FA03F3BE
:104D10001A430892A1464C46052214F8011B30465E
:104D2000FDF7DEFEA246831B0028EED1089BD806C5
:104D300044BF20228DF86320190799F8001044BF62
:104D40002B228DF863202A297BD1079A116804321F
:104D500000290792C0F2B0800B9199F801102E291A
:104D600000F08680704C03222046FDF7B9FE38B172
:104D7000089B001B4022824013430AF1010A08935A
:104D80001AF8011B69488DF838100622FDF7A8FEB5
:104D9000002800F09780664B002B7ED007AA009277
:104DA000644B04985A4608A9FCF756FF0390039BEE
:104DB000013307D00D9B039A13440D939AF80030EA
:104DC000002B84D1DBF8643013F0010FBBF80C30FA
:104DD00002D19A0540F195805B0616D40D9821B05A
:104DE000BDE8F08F0498594600F084FA00283FF49B
:104DF00060AFDBF86430DD0707D4BBF80C309C05EE
:104E000003D4DBF85800FDF763FE4FF0FF30E6E710
:104E1000B9EB0A08D6D00AF1FF35CDF81490A946AF
:104E2000049D01E0A0453FD94C465A4619F8011FA0
:104E30002846FFF7DBFE02340130A4EB0A04F1D16F
:104E4000C0E7A1F13002092A88BFCA4687D80B9B68
:104E500000E00134217803EB830302EB4303A1F16B
:104E60003002092AF5D92E290B93A2467FF47AAF96
:104E70009AF801102A292FD1079B9AF802101A6874
:104E800009920433002A0AF102000793B8BF4FF0D9
:104E9000FF338246B8BF099364E7079B073323F0CB
:104EA00007030833079385E70D99DDF81490414413
:104EB00099F800300D9119E7494243F002030B9134
:104EC00008934AE707AA00921A4B04985A4608A981
:104ED000FDF7F8F903906AE7A1F130020023092AEF
:104EE00009930AF1010A3FF63DAF1AF8011F03EBDF
:104EF000830302EB4303A1F13002092AF5D9099398
:104F000030E7DBF85800FDF7E3FDBBF80C3063E752
:104F1000DBF85800FDF7D4FDBBF90C30C1E6FDF716
:104F20002FFCB5E660610008686100086C6100084C
:104F3000591C0008294C000810B4054C844613463F
:104F400020685DF8044B0A466146FFF795BE00BF36
:104F5000140000249368002B00F0F8802DE9F04F36
:104F6000B1F90CC01CF0080F83B0904681460C4686
:104F700031D00B697BB31CF00207D8F8006038D041
:104F80000027D4F828B0216ADFF8C4A23D46554571
:104F90002B463A4628BF53464846C5B1D847002855
:104FA00040F3CA80D8F808301B1A07442D1AC8F8F5
:104FB0000830002B00F0B68055452B46D4F828B0B9
:104FC000216A28BF53463A464846002DE6D1D6E925
:104FD00000750836DBE72146484600F08BF90028CB
:104FE00040F0AF80B4F90CC0D8F800601CF00207A4
:104FF000C6D11CF0010A63D12368A1685746184640
:105000008B46002F58D01CF4007F00F0B580B942C9
:105010000A4600F2E1801CF4906F2FD0216962698A
:105020005D1A02EB420202EBD2726B1C52103B443F
:10503000934292BF93469B461A461CF4806F00F041
:10504000EA8011464846FEF7BFFD002800F0F980CF
:105050002A4621690090FFF793FCA289009B22F465
:10506000906242F08002A2815819ABEB0505C4F8AA
:1050700014B02361A5602060BB463A4651460092B9
:1050800000F098F9A1682368009AA1EB0B011A447B
:105090003D46A16022600027D8F808305B1BAA4477
:1050A000C8F80830002B3DD02368A168B4F90CC0C3
:1050B00018468B46002FA6D1D6E900A708369EE7F2
:1050C0003846BB463D460097002D41D0002846D0CB
:1050D000009A2068A168D4E90473AA4228BF2A462E
:1050E000B84204D901EB030A524500F3858093428C
:1050F00075DC216AA76A5A464846B847B0F1000AEB
:105100001ADD009BB3EB0A0300930FD00120D8F8FF
:105110000830A3EB0A03D344A5EB0A05C8F808300E
:10512000002BD1D1002003B0BDE8F08F21464846C6
:10513000FFF7D4FB0028EAD0B4F90C3043F0400369
:10514000A3814FF0FF3003B0BDE8F08F002070471F
:10515000756833460836002DFAD0D3F800B02A46D9
:105160000A215846FDF7BCFC002867D00130A0EBAF
:105170000B0300931A46ACE722699A4214D3626982
:10518000BA4211D86FF00043BB4228BF3B46A56A24
:1051900093FBF2F3216A02FB03F348465246A84709
:1051A000051EC9DD7F1B77E7B94228BF39460D468A
:1051B00018460A46514600F0FDF8A1682368491BCD
:1051C0002B44A16023600029ECD121464846FFF71B
:1051D00085FB0028E6D0AFE7BB463A464EE7594686
:1051E000019200F0E7F8019AA3689B1AA360236874
:1051F00013442360924684E75946524600F0DAF899
:1052000023685344236021464846FFF767FB002884
:105210003FF477AF90E7484600F094FA0346002841
:105220007FF422AF21694846FEF73CFCB4F90C300C
:105230000C2223F08003C9F800207FE76A1C00924B
:1052400047E70C22B4F90C30C9F8002076E700BF1C
:1052500000FCFF7FF8B50D461446064610B1036A00
:10526000002B37D0A389A269A2601A0719D5236938
:10527000BBB122686169D31AEDB299422F4620DD95
:105280000133A1680139A160511C21601570626968
:105290009A420DD0A389DB0701D50A2D08D03846E4
:1052A000F8BD2146304600F025F838B92369E0E71B
:1052B00021463046FFF712FB0028F0D04FF0FF37B1
:1052C000EDE721463046FFF709FB0028F6D12268BA
:1052D0000123D6E7FDF754FAC4E700BF10B4044C2D
:1052E00003460A4620685DF8044B1946FFF7B2BF33
:1052F0001400002438B52E4B1B6805460C4613B12C
:105300001A6A002A4BD0B4F90C3018071CD5226950
:1053100022B313F0010107D0616900204942A06067
:10532000A1613AB1002038BD980758BF6169A160FA
:10533000002AF7D1190658BF1046F4D543F04003B0
:10534000A3814FF0FF3038BDD9062CD55A0712D4AF
:10535000226943F00803A381002ADAD103F4207103
:10536000B1F5007FD5D02146284600F01FFAB4F9E8
:105370000C302269CDE7616B51B104F144029142D6
:1053800004D02846FEF78EFBB4F90C30002262638D
:1053900022690021C4E9002123F02403D9E718463B
:1053A000FDF7EEF9AFE709222A6043F04003C7E7B3
:1053B0001400002488420ED98B1883420BD900EBCD
:1053C000020C002A6ED0624613F801CD02F801CD1E
:1053D0009942F9D170470F2A0FD8034602F1FF3CDA
:1053E000002A5FD00CF1010C013B8C4411F8012B19
:1053F00003F8012F6145F9D1704740EA01039B078B
:1054000051D1A2F1100370B501F1200C23F00F056A
:1054100001F1100E00F11004AC441B095EF8105CA1
:1054200044F8105C5EF80C5C44F80C5C5EF8085CB8
:1054300044F8085C5EF8045C44F8045C0EF1100E5D
:10544000E64504F11004E9D1013312F00C0F01EB31
:10545000031102F00F0400EB031328D0043C24F0E6
:1054600003064FEA940C1E441C1F8E465EF8045B34
:1054700044F8045FB442F9D10CF1010402F00302D4
:1054800003EB840301EB840102F1FF3C4AB10CF110
:10549000010C013B8C4411F8012B03F8012F6145ED
:1054A000F9D170BD704702F1FF3C03469AE72246EE
:1054B000EAE700BF38B5C46B0CB1002038BD8021CD
:1054C0000546FEF781FB0246E86330B1031F7C32DC
:1054D00043F8044F9342FBD1EFE74FF0FF3038BD64
:1054E00030B51F2983B0054608D8C36B0C4653B1AD
:1054F00053F8240043F8242003B030BD1623036082
:105500004FF0FF30F8E780210192FEF75DFB019A32
:10551000E86303460028F3D0011F00F17C0500205A
:1055200041F8040FA942FBD1E2E700BF1F2938B5BB
:1055300005461ED8C26B0C466AB152F8213053B1F1
:10554000012B06D0591C10D0002142F8241020460F
:105550009847002038BD284600F0F2F82246014660
:105560002846BDE8384000F0D5B816230360012076
:1055700038BD162303604FF0FF3038BD1F292AD8ED
:1055800038B5C36B0C460546A3B153F8242003EB92
:1055900084034AB1511C0BD0012A07D000252046B4
:1055A0001D609047284638BD012038BD032038BD16
:1055B000022038BD8021FEF707FB0346E86338B1BF
:1055C000021F00217C3042F8041F9042FBD1DCE72F
:1055D0004FF0FF3038BD4FF0FF30704738B5134BF8
:1055E0001F281D681DD8EA6B044662B152F82030AE
:1055F0004BB1012B05D0591C0FD0002142F82010CF
:105600009847002038BD284600F09AF82246014607
:105610002846BDE8384000F07DB816232B600120F5
:1056200038BD16232B604FF0FF3038BD1400002426
:10563000114B1F2870B51E6808D8F36B04460D4641
:105640004BB153F8240043F8245070BD1623336047
:105650004FF0FF3070BD80213046FEF7B5FA0346AB
:10566000F0630028F4D0021F00217C3042F8041FB0
:105670009042FBD1E5E700BF1400002438B50B4B86
:105680001D68EC6B0CB1002038BD80212846FEF768
:105690009BFAE86338B1031F00F17C0243F8044F22
:1056A0009342FBD1EFE74FF0FF3038BD14000024E8
:1056B00038B5174B1F281D6826D80446E86BA0B1E3
:1056C00050F8243000EB84004BB15A1C0BD0012B56
:1056D00007D00025056020469847284638BD0120A0
:1056E00038BD032038BD022038BD80212846FEF792
:1056F0006BFAE86340B1031F00F17C01002243F81C
:10570000042F9942FBD1DBE74FF0FF3038BD00BFDB
:105710001400002470B50C46084D034600262046B0
:1057200011461C462E6000F0A7F9431C00D070BD46
:105730002B68002BFBD0236070BD00BFF403002456
:1057400000F08AB92DE9F041144649B3EAB10646A2
:105750000D4600F0DDF88442074602D8B4EB500F46
:105760001AD821463046FEF72FFA804678B1BC425F
:105770002246294628BF3A46FFF702F93046294615
:10578000FEF790F94046BDE8F081FEF78BF94FF047
:1057900000084046BDE8F081A8464046BDE8F081DB
:1057A000BDE8F0411146FEF70FBA00BF70B5B1F980
:1057B0000C300C46990796B007D504F14703012237
:1057C000C4E90432236016B070BDB4F90E1000298C
:1057D000054629DB6A4600F073F8002822DB4FF407
:1057E00080612846019EFEF7EFF988B3A389206007
:1057F00043F0800306F47046A381B6F5005F4FF4D2
:105800008063C4E90403DED1B4F90E10284600F029
:105810006DF80028D7D0A38923F0030343F00103D8
:10582000A381D0E7B4F90C3013F0800F14BF4026E9
:105830004FF4806631462846FEF7C6F940B1A38989
:10584000206043F08003C4E90406A38116B070BD54
:10585000B4F90C309A05B6D423F0030304F14702DF
:1058600043F002030121C4E90421A3812260AAE7D5
:1058700070B50C46B1F90E10002996B015461E46BB
:105880000FDB6A4600F01CF800280ADB019B03F4DA
:105890007043A3F50053B3FA83F34FF480625B09BE
:1058A00008E0A28912F0800F4FF0000314BF4022DD
:1058B0004FF48062002033602A6016B070BD00BFD4
:1058C00070B50C46084D03460026204611461C467E
:1058D0002E6000F0B9F8431C00D070BD2B68002B7F
:1058E000FBD0236070BD00BFF403002438B5074D22
:1058F0000022044608462A6000F0B6F8431C00D097
:1059000038BD2B68002BFBD0236038BDF403002486
:1059100051F8043C181F002BBCBF0B58C01870472F
:105920000EB400B582B003AB816853F8042B019329
:10593000FFF7A2F902B05DF804EB03B0704700BFB7
:105940000FB400B5074983B004AB086853F8042BC3
:1059500081680193FFF790F903B05DF804EB04B0A0
:10596000704700BF14000024036A2DE9F0418468E9
:1059700080460E46002B53D0626EB4F90C30D5072A
:1059800001D4980546D5190717D52369ABB1013E57
:10599000A36816F8015F013BA36025B3002B07DA6B
:1059A000A769BB4222462946404617DB0A2D15D07F
:1059B00023685A1C22601D70EAE721464046FFF723
:1059C00099FC0028E3D04FF0FF35636EDA0702D46C
:1059D000A3899B0518D52846BDE8F081FFF73AFC5E
:1059E0000130D5D1EFE7002B08DA22460A214046E4
:1059F000FFF730FC0130E6D00A25E6E723680A22EB
:105A0000591C21601A70F7E7A06DFDF761F8284670
:105A1000BDE8F081A06DFDF753F8B4F90C30B2E7A2
:105A2000FCF7AEFEA8E700BF024B01461868FFF77F
:105A30009BBF00BF14000024024B58221A604FF095
:105A4000FF307047F4030024024B58221A604FF0D5
:105A5000FF307047F4030024024B58221A604FF0C5
:105A6000FF307047F4030024024B58221A600020D4
:105A7000704700BFF4030024024B58221A604FF015
:105A8000FF307047F4030024024B58221A604FF095
:105A9000FF307047F4030024024B58221A604FF085
:105AA000FF307047F4030024044A05491368002BB3
:105AB00008BF0B46184410601846704720040024A5
:105AC00040040024024B58221A604FF0FF30704708
:105AD000F4030024FEE700BF10B5054C237833B96A
:105AE000044B13B10448AFF300800123237010BDB1
